:020000040800F2
:100000007006002089010008C5050008BD0500082C
:10001000C10500082F0300084D0D00080000000076
:10002000000000000000000000000000490A000875
:100030003303000800000000050A0008350B000823
:10004000A3010008A3010008A3010008A301000800
:10005000A3010008A3010008A3010008A3010008F0
:10006000A3010008A3010008A3010008A3010008E0
:10007000A3010008A3010008A3010008A3010008D0
:10008000A3010008A3010008A3010008A3010008C0
:10009000A3010008A3010008A3010008A3010008B0
:1000A000A3010008A3010008A3010008A3010008A0
:1000B000A3010008990B0008A3010008A301000890
:1000C000A3010008A3010008A3010008A301000880
:1000D000A3010008A3010008A3010008A301000870
:1000E000A3010008A3010008A301000800F002F822
:1000F00000F03AF80AA090E8000C82448344AAF188
:100100000107DA4501D100F02FF8AFF2090EBAE885
:100110000F0013F0010F18BFFB1A43F0010318473B
:10012000EC1400000C150000103A24BF78C878C108
:10013000FAD8520724BF30C830C144BF04680C60ED
:10014000704700000023002400250026103A28BF35
:1001500078C1FBD8520728BF30C148BF0B60704739
:100160001FB51FBD10B510BD00F0A8F81146FFF770
:10017000F7FF00F0EDFD00F0C6F803B4FFF7F2FF63
:1001800003BC00F0CDF8000009488047094800474B
:10019000FEE7FEE7FEE7FEE7FEE7FEE7FEE7FEE737
:1001A000FEE7FEE704480549054A064B7047000094
:1001B000390B0008ED0000087000002070060020D8
:1001C000700200207002002053EA020C00F06980E7
:1001D0002DE9F04B4FF00006002B1FBFB3FA83F55B
:1001E00003FA05F424FA05F65E4012BF1643B2FA8C
:1001F00082F502FA05F4C5F120051EBF22FA05FCBE
:1002000044EA0C04203556EA044C4FEA144418BF63
:10021000641C4FF000084FF00009904271EB030C92
:1002200039D3002919BFB1FA81F701FA07F6B0FAFC
:1002300080F700FA07F6C7F120071EBF20FA07FC77
:1002400046EA0C062037B6FBF4FCA7EB0507103F87
:1002500007F01F0BCBF120060CFA0BFB2CFA06F66D
:1002600044BFB3460026202FA4BF5E464FF0000BCC
:100270005BEA060C08BF4FF0010B19EB0B09ABFB57
:10028000027C48EB0608C01B06FB02CC0BFB03CC30
:1002900071EB0C01C1E70B46024641464846BDE8FA
:1002A000F08B13B54FF000004FF00001AFF300806A
:1002B000BDE81C407047704770477047754600F0B6
:1002C0002BF8AE4605006946534620F007008546E8
:1002D00018B020B5FFF766FFBDE820404FF00006DC
:1002E0004FF000074FF000084FF0000B21F007011E
:1002F000AC46ACE8C009ACE8C009ACE8C009ACE861
:10030000C0098D46704710B50446AFF30080204603
:10031000BDE81040FFF731BF0048704710000020D3
:1003200001491820ABBEFEE726000200704700BF5F
:10033000FEE7704700B5034603E04FF47A7000F023
:1003400005F8181EA3F10103F7D100BD00EBC001B1
:10035000C9004FF0E0225161002191610521116136
:1003600000BF4FF0E021096901F480310029F8D085
:1003700004214FF0E022116170472DE9F04102465F
:1003800000250026002000230024002791F803C048
:100390000CF00F0591F803C00CF0100CBCF1000F2D
:1003A00003D091F802C04CEA050591F800C0BCF1F9
:1003B000000F31D0146800202BE04FF0010C0CFA34
:1003C00000F3B1F800C00CEA03069E4220D183007E
:1003D0004FF00F0C0CFA03F7BC4305FA03FC4CEA90
:1003E000040491F803C0BCF1280F06D14FF0010CB2
:1003F0000CFA00FCC2F814C00AE091F803C0BCF18A
:10040000480F05D14FF0010C0CFA00FCC2F810C0E7
:10041000401C0828D1D31460B1F800C0BCF1FF0F14
:1004200034DD546800202EE000F1080C4FF0010884
:1004300008FA0CF3B1F800C00CEA03069E4221D181
:1004400083004FF00F0C0CFA03F7BC4305FA03FCD2
:100450004CEA040491F803C0BCF1280F05D100F167
:10046000080C08FA0CF8C2F8148091F803C0BCF12B
:10047000480F07D100F1080C4FF0010808FA0CF8FA
:10048000C2F81080401C0828CED35460BDE8F0812B
:100490004FF480320A43826181618261826982699C
:1004A00070470246002093680B400BB1012000E02A
:1004B0000020704741617047016170470AB10161D6
:1004C00000E0416170470000F8B504460F4615464C
:1004D0001E460121204600F0A7FA8DF80370ADF802
:1004E00000508DF80260102C16D006DC042C09D0C8
:1004F000082C0CD00C2C2FD113E0142C1AD0182C53
:100500002AD120E069461548FFF737FF24E0694605
:100510001348FFF732FF1FE069461248FFF72DFF2F
:100520001AE069460D48FFF728FF69460C48FFF7B7
:1005300024FF11E069460948FFF71FFF6946094893
:10054000FFF71BFF08E069460548FFF716FF6946FD
:100550000448FFF712FF00BF00BFF8BD00080140CC
:10056000000C01400010014008B50121082000F0F6
:100570005BFA10208DF803000002ADF800000320A4
:100580008DF8020069460C48FFF7F7FE28208DF829
:1005900003004FF40050ADF8000069460648FFF72D
:1005A000ECFE00224FF480510348FFF787FF0F2035
:1005B000FFF7CCFE08BD0000000C014000BFFEE7C5
:1005C00000BFFEE77047000070B5002100230F2236
:1005D000C47804B3154C246804F4E064C4F5E06402
:1005E000210AC1F10403CA40447804FA03F1847873
:1005F0001440214309010E4C0678A155047804F0FB
:100600001F050124AC4005786D11AD0005F1E02512
:10061000C5F8004109E0047804F01F050124AC404E
:10062000044D0678761145F8264070BD0CED00E0CB
:1006300000E400E080E100E002490143024A116069
:10064000704700000000FA050CED00E070B50024D2
:100650000EE00021204600F034F9002504E00020DF
:1006600000F0C0F9681CC5B2802DF8DB601CC4B274
:10067000082CEEDB70BD2DE9F04106460F46904692
:100680003D4625E06A1ED206110E721E5206100E5D
:1006900000F017F9002404E0002000F0A3F9601C2A
:1006A000C4B2082CF8DB6A1ED206110E721E01239A
:1006B00003EB4202D0B200F004F9002404E0002071
:1006C00000F090F9601CC4B2082CF8DB681CC5B2BD
:1006D0004545D7DDBDE8F08108B50121082000F0CF
:1006E000A3F914208DF8030003208DF802004FF4C5
:1006F0008070ADF8000069461448FFF73EFE4FF4E5
:100700000070ADF8000069461048FFF736FE012280
:1007100011020E48FFF7D2FE012251020B48FFF7EB
:10072000CDFE0323C02210210820FFF7CDFE0022BA
:1007300040210648FFF7C2FE012280210348FFF74F
:10074000BDFEC0210148FFF7A3FE08BD000C01401B
:1007500070B50546002415E08020204100EA05021E
:100760004FF400710E48FFF7A9FE012211020C4858
:10077000FFF7A4FE00224FF480710948FFF79EFEA8
:10078000601CC4B2082CE7DB012211020448FFF709
:1007900095FE00224FF480710148FFF78FFE70BD77
:1007A000000C014010B5012251020A48FFF786FEF5
:1007B000012211020748FFF781FE00224FF4007169
:1007C0000448FFF77BFE00224FF480710148FFF7D9
:1007D00075FE10BD000C014010B500224FF40071F1
:1007E0000648FFF76BFE012211020448FFF766FE80
:1007F000012251020148FFF761FE10BD000C0140CB
:1008000070B5002406E0002500E06D1CB5F57A7F88
:10081000FBD3641CB4F57A7FF5D3FFF75DFFAE2000
:1008200000F0D0F8D52000F0CDF8802000F0CAF814
:10083000A82000F0C7F83F2000F0C4F8D32000F053
:10084000C1F8002000F0BEF8402000F0BBF8A12065
:1008500000F0B8F8C82000F0B5F8DA2000F0B2F8DF
:10086000122000F0AFF8812000F0ACF8CF2000F0AB
:10087000A9F8D92000F0A6F8F12000F0A3F8DB20B9
:1008800000F0A0F8302000F09DF8A42000F09AF8C5
:10089000A62000F097F88D2000F094F8142000F0C6
:1008A00091F8AF2000F08EF8FFF7D0FE70BD10B5C4
:1008B0000246012000E050430B1EA1F10101FAD1D4
:1008C00010BD70B505460C4645F0B00000F07AF852
:1008D000102141EA141000F075F804F00F0000F048
:1008E00071F870BD2DE9F04105460E461746721E9F
:1008F000D206110E6A1E5206100EFFF7E2FF002408
:1009000009E0A7F12001134A02EB0111085D00F094
:1009100069F8601CC4B2082CF3DB721ED206110EFB
:100920006A1E012303EB4202D0B2FFF7CAFF002484
:100930000BE0A7F12001074A02EB011204F10801C4
:10094000505C00F04FF8601CC4B2082CF1DBBDE82D
:10095000F08100001C1000082DE9F04780460E468B
:1009600017461D46002415E0281B411E0A20FFF7EC
:100970009EFFB7FBF0F00A21B0FBF1F201FB120081
:1009800000F130093019C1B24A464046FFF7AAFFCC
:10099000601CC4B2AC42E7DBBDE8F0872DE9F04152
:1009A00007460E461546002407E02A5D3019C1B2FD
:1009B0003846FFF797FF601CC4B2285D0028F4D1C9
:1009C000BDE8F08110B50446FFF7ECFE7820FFF794
:1009D000BFFE0020FFF7BCFE2046FFF7B9FEFFF781
:1009E000FBFE10BD10B50446FFF7DCFE7820FFF7D4
:1009F000AFFE4020FFF7ACFE2046FFF7A9FEFFF751
:100A0000EBFE10BD7047000029B1064AD2690243CF
:100A1000044BDA6104E0034AD2698243014BDA6194
:100A2000704700000010024029B1064A9269024353
:100A3000044B9A6104E0034A92698243014B9A6134
:100A40007047000000100240704710B500F002F837
:100A500010BD00000CB500200190009033480068E4
:100A600040F480303149086000BF3048006800F42D
:100A7000003000900198401C0190009818B901982E
:100A8000B0F5A06FF1D12948006800F4003010B132
:100A90000120009001E0002000900098012843D13F
:100AA0002348006840F010002149086008460068AB
:100AB00020F0030008600846006840F0020008606B
:100AC0001A48406819494860084640684860084626
:100AD000406840F4806048600846406820F47C101C
:100AE00048600846406840F4E810486008460068DE
:100AF00040F08070086000BF0C48006800F0007093
:100B00000028F9D00948406820F0030007494860F0
:100B10000846406840F00200486000BF0348406853
:100B200000F00C000828F9D10CBD000000100240B4
:100B3000002002407047000010B51348006840F0E4
:100B400001001149086008464068104908400E49F4
:100B50004860084600680E4908400B49086008468E
:100B6000006820F4802008600846406820F4FE00F9
:100B700048604FF41F008860FFF767FF4FF0006088
:100B80000449086010BD0000001002400000FFF89A
:100B9000FFFFF6FE08ED00E010B50121094800F066
:100BA00027F801280CD10848D0E90020521C40F158
:100BB00000000549C1E900200121024800F009F8C0
:100BC00010BD00000004004000000020CA43028263
:100BD0007047CA430282704721B1028842F0010285
:100BE000028004E002884FF6FE731A4002807047CC
:100BF00030B50246002000230024158A05EA0103CF
:100C0000958905EA010413B10CB1012000E0002030
:100C100030BD1AB183890B43838102E083898B4302
:100C20008381704701894FF6F87211400181704746
:100C3000002202881D4B98420ED01D4B98420BD0CB
:100C4000B0F1804F08D01B4B984205D01A4B984208
:100C500002D01A4B984204D14FF68F731A404B883A
:100C60001A43174B984207D0164B984204D04FF6C0
:100C7000FF431A40CB881A4302808B8883850B88F8
:100C800003850A4B98420BD0094B984208D00E4B73
:100C9000984205D00D4B984202D00D4B984201D19D
:100CA0000B7A03860123838270470000002C0140E9
:100CB000003401400004004000080040000C0040E7
:100CC000001000400014004000400140004401407A
:100CD000004801401FB501210220FFF795FE1A4888
:100CE000FFF7A0FF0020ADF80A00ADF806000920CC
:100CF000ADF808004720ADF8040000208DF80C0086
:100D000001A91148FFF794FF01210F48FFF75EFF8B
:100D1000012211460C48FFF77CFF4FF4A060FFF75B
:100D20008BFC1D208DF8000001208DF803000220AF
:100D30008DF801008DF802006846FFF745FC01219F
:100D40000148FFF749FF1FBD0004004000BFFEE758
:100D5000FFF756FDFFF7BEFFFFF706FC03234FF436
:100D60001C7210210420FFF7AFFB10216C48FFF725
:100D7000A1FB40216A48FFF79FFB4FF408716848C8
:100D8000FFF79AFB67A201210846FFF707FEC5E0BF
:100D900000F0F2F806464FF47A7096FBF0F496FBFA
:100DA000F0F100FB1165102201210220FFF763FC26
:100DB0002046E11700F0C4F8C7B23B4622460121A5
:100DC0000220FFF7C9FD2046E11700F0B9F8401CEA
:100DD000C7B24FF02E0239464FF00200FFF782FDF6
:100DE000642D44DA52A204210846FFF7D7FD4FF4E0
:100DF00008714B48FFF75EFB2046E11700F0A0F8B2
:100E0000401C401CC7B24FF0300239464FF0020080
:100E1000FFF768FD2846E91700F092F8C7B22046B0
:100E2000E11700F08DF8401C801C00F0FF083B46E5
:100E30002A4641464FF00200FFF78EFD2046E1179B
:100E400000F07EF8401C4FF0020110EB010828462C
:100E50004FEAE57100F074F818EB0000C7B24FF0EC
:100E60006D0239464FF00200FFF73CFD35E01022DD
:100E700001210420FFF7FFFB4FF408712848FFF71A
:100E80001BFB2846E91700F05BF8C7B22046E117C4
:100E900000F056F8411C481C00F0FF083B462A466B
:100EA00041464FF00200FFF757FD2046E11700F0E2
:100EB00047F8411C4FF0010011EB000828464FEAAB
:100EC000E57100F03DF818EB0000C7B24FF06D027D
:100ED00039464FF00200FFF705FD102201210320E3
:100EE000FFF7C9FB3046F11700F02AF8C7B23B46BE
:100EF000324601210320FFF72FFD3046F11700F0A5
:100F00001FF8401CC7B20DA239464FF00300FFF78F
:100F100045FD4FF49670FFF70DFA00BF38E700006B
:100F20000008014044697374616E63653A00000013
:100F30004259442C53544F50212100006D6D000044
:100F40002DE9F04104460D46012600270AE00A2259
:100F5000002320462946FFF737F904460D46761C44
:100F600047F100070020D4F10901A841EFD3304632
:100F70003946BDE8F08100002DE9F041002501224D
:100F800011032348FFF79AFA0F20FFF7DFF9002239
:100F90004FF480511E48FFF791FA00BF4FF4005103
:100FA0001B48FFF77EFA0028F8D00021194A11608B
:100FB000516000BF4FF400511548FFF772FA012845
:100FC000F8D01448D0E90010134AC2E90010642296
:100FD0000023114903C9FFF7F7F8263871F1000122
:100FE00013D20D484FF4AD7306C80020A1FB03686F
:100FF00002FB038201FB0021022203463046FFF779
:10100000E3F804466420B4FBF0F528B2BDE8F081B3
:10101000000C01400000002008000020000000003B
:10102000000000000000000000000000000000F8C8
:1010300000000000000000333000000000100C062B
:10104000100C0600000000000000000040C07840C6
:10105000C0784000043F04043F040400007088FC92
:1010600008300000001820FF211E0000F008F000EA
:10107000E018000000211C031E211E0000F008885B
:10108000700000001E2123241927211010160E00C5
:10109000000000000000000000000000000000E070
:1010A0001804020000000007182040000002041885
:1010B000E00000000040201807000000404080F0E1
:1010C000804040000202010F01020200000000F017
:1010D000000000000101011F0101010000000000EB
:1010E0000000000080B07000000000000000000060
:1010F00000000000000101010101010100000000E9
:10110000000000000030300000000000000000007F
:1011100080601804006018060100000000E010085C
:101120000810E000000F102020100F00001010F831
:10113000000000000020203F202000000070080870
:1011400008887000003028242221300000300888F0
:10115000884830000018202020110E000000C02018
:1011600010F8000000070424243F240000F8088839
:10117000880808000019212020110E0000E01088C6
:1011800088180000000F112020110E0000380808F8
:10119000C83808000000003F000000000070880808
:1011A00008887000001C222121221C0000E0100889
:1011B0000810E0000000312222110F00000000C0E2
:1011C000C00000000000003030000000000000807F
:1011D000000000000000806000000000000080406F
:1011E0002010080000010204081020004040404088
:1011F00040404000040404040404040000081020DB
:10120000408000000020100804020100007048081F
:101210000808F0000000003036010000C030C82887
:10122000E810E0000718272423140B000000C03842
:10123000E0000000203C23020227382008F88888BC
:1012400088700000203F202020110E00C0300808C8
:1012500008083800071820202010080008F808089F
:101260000810E000203F202020100F0008F8888898
:10127000E8081000203F20202320180008F8888864
:10128000E8081000203F200003000000C0300808DC
:101290000838000007182020221E020008F8080065
:1012A0000008F808203F210101213F20000808F82C
:1012B000080800000020203F20200000000008084F
:1012C000F8080800C08080807F00000008F888C00F
:1012D00028180800203F20012638200008F80800C0
:1012E00000000000203F20202020300008F8F800F7
:1012F000F8F80800203F003F003F200008F830C009
:101300000008F808203F200007183F00E0100808F8
:101310000810E0000F10202020100F0008F8080827
:101320000808F000203F210101010000E01008083A
:101330000810E0000F18242438504F0008F888885F
:1013400088887000203F2000030C3020007088083F
:10135000080838000038202121221C00180808F84D
:10136000080818000000203F2000000008F80800CE
:101370000008F808001F202020201F00087888009F
:1013800000C83808000007380E010000F80800F80F
:101390000008F800033C0700073C030008186880B9
:1013A0008068180820302C03032C30200838C8002F
:1013B000C83808000000203F20000000100808087E
:1013C000C83808002038262120201800000000FE20
:1013D000020202000000007F40404000000C30C0CC
:1013E00000000000000000010638C00000020202F8
:1013F000FE000000004040407F00000000000402AA
:1014000002020400000000000000000000000000D4
:1014100000000000808080808080808000020204C4
:1014200000000000000000000000000000008080BC
:10143000808000000019242222223F2008F800802A
:1014400080000000003F112020110E0000000080ED
:1014500080800000000E112020201100000000807C
:101460008088F800000E112020103F2000008080AE
:1014700080800000001F222222221300008080F0C2
:10148000888888180020203F2020000000008080ED
:1014900080808000006B94949493600008F8008032
:1014A00080800000203F210000203F20008098988D
:1014B000000000000020203F2020000000000080ED
:1014C0009898000000C08080807F000008F800002D
:1014D00080808000203F24022D302000000808F882
:1014E000000000000020203F20200000808080803D
:1014F00080808000203F20003F20003F80800080CF
:1015000080800000203F210000203F2000008080DC
:1015100080800000001F202020201F00808000808D
:101520008000000080FFA12020110E00000000803C
:1015300080808000000E112020A0FF80808080002D
:101540008080800020203F2120000100000080805A
:10155000808080000033242424241900008080E04F
:10156000808000000000001F20200000808000001C
:1015700000808000001F202020103F2080808000FD
:101580000080808000010E3008060100808000800D
:10159000008080800F300C030C300F000080800032
:1015A000808080000020312E0E312000808080005D
:1015B0000080808080818E7018060100008080800D
:1015C000808080000021302C2221300000000000AB
:1015D000807C020200000000003F4040000000004C
:1015E000FF00000000000000FF0000000002027C7D
:1015F000800000000040403F0000000000060101A4
:101600000202040400000000000000002C16000884
:101610000000002010000000280100083C1600080F
:1016200010000020600600004401000800000000D7
:0C163000000000000000000000000000AE
:04000005080000ED02
:00000001FF
