:020000040800F2
:1000000070080020C9010008E9080008B1070008CD
:10001000B507000803030008A5150008000000004C
:100020000000000000000000000000007D0E00083D
:100030000703000800000000650D000869100008B3
:10004000E3010008E3010008E3010008E301000800
:10005000E3010008E3010008E3010008E3010008F0
:10006000E3010008E3010008E3010008E3010008E0
:10007000E3010008E3010008E3010008E3010008D0
:10008000E3010008E3010008E3010008E3010008C0
:10009000E3010008E3010008E3010008E3010008B0
:1000A000E3010008E3010008E3010008E3010008A0
:1000B000E3010008E3010008E3010008E301000890
:1000C000E3010008E3010008E3010008E301000880
:1000D000E301000845120008E3010008E3010008FD
:1000E0004F030008E3010008E301000800F002F8F4
:1000F00000F05AF80AA090E8000C82448344AAF168
:100100000107DA4501D100F04FF8AFF2090EBAE865
:100110000F0013F0010F18BFFB1A43F0010318473B
:10012000E4200000042100000A444FF0000C10F805
:10013000013B13F0070408BF10F8014B1D1108BF65
:1001400010F8015B641E05D010F8016B641E01F805
:10015000016BF9D113F0080F1EBF10F8014BAD1C55
:100160000C1B09D16D1E58BF01F801CBFAD505E073
:1001700014F8016B01F8016B6D1EF9D59142D6D3CD
:10018000704700000023002400250026103A28BFF5
:1001900078C1FBD8520728BF30C148BF0B607047F9
:1001A0001FB51FBD10B510BD00F071F81146FFF767
:1001B000F7FF01F011FA00F08FF803B4FFF7F2FF38
:1001C00003BC00F097F80000094880470948004741
:1001D000FEE7FEE7FEE7FEE7FEE7FEE7FEE7FEE7F7
:1001E000FEE7FEE704480549054A064B7047000054
:1001F0006D100008ED00000870020020700800205B
:1002000070040020700400204FF0013C50F8042BD3
:1002100051F8043B9A4221D1A2EB0C03934313EA19
:10022000CC1317D150F8042B51F8043B9A4215D146
:10023000A2EB0C03934313EACC130BD150F8042B1D
:1002400051F8043B9A4209D1A2EB0C03934313EA01
:10025000CC13DBD04FF00000704700BFD01A01BABA
:10026000B1FA81F101F0180122FA01F0CB40C1F19D
:100270002001DBB2C0B2C01A2CFA01F3D11A9143AB
:1002800011EAC311E6D17047704770477047754651
:1002900000F02CF8AE4605006946534620F00700F2
:1002A000854618B020B5FFF79DFFBDE820404FF010
:1002B00000064FF000074FF000084FF0000B21F050
:1002C0000701AC46ACE8C009ACE8C009ACE8C0091D
:1002D000ACE8C0098D46704710B50446AFF3008006
:1002E0002046BDE81040FFF768BF00000048704797
:1002F0001002002001491820ABBEFEE726000200D4
:10030000704700BFFEE7704700B5034603E04FF4B7
:100310007A7000F005F8181EA3F10103F7D100BDB3
:1003200000EBC001C9004FF0E02251610021916152
:100330000521116100BF4FF0E021096901F480310E
:100340000029F8D004214FF0E0221161704710B568
:100350004FF4004000F034F801280ED1082000F0DE
:100360008FFD04464FF4004100F0C9F808B900F0D1
:100370000BF84FF4004000F001F810BD014908608F
:10038000704700001404014010B54FF400621021C2
:10039000042000F0C6F84FF40061084800F0AFF800
:1003A000012804D1C102054800F0B2F804E04FF47E
:1003B0000061024800F0AEF8002010BD00080140C6
:1003C000014600200022074B1B6803EA0102054B8F
:1003D00014331B680B4013B10AB1012000E0002068
:1003E00070470000000401402DE9F041024600255D
:1003F0000026002000230024002791F803C00CF001
:100400000F0591F803C00CF0100CBCF1000F03D0E5
:1004100091F802C04CEA050591F800C0BCF1000F4C
:1004200031D0146800202BE04FF0010C0CFA00F3DF
:10043000B1F800C00CEA03069E4220D183004FF0C1
:100440000F0C0CFA03F7BC4305FA03FC4CEA040456
:1004500091F803C0BCF1280F06D14FF0010C0CFA43
:1004600000FCC2F814C00AE091F803C0BCF1480FC8
:1004700005D14FF0010C0CFA00FCC2F810C0401C72
:100480000828D1D31460B1F800C0BCF1FF0F34DDEF
:10049000546800202EE000F1080C4FF0010808FA23
:1004A0000CF3B1F800C00CEA03069E4221D1830090
:1004B0004FF00F0C0CFA03F7BC4305FA03FC4CEAAF
:1004C000040491F803C0BCF1280F05D100F1080C19
:1004D00008FA0CF8C2F8148091F803C0BCF1480F78
:1004E00007D100F1080C4FF0010808FA0CF8C2F827
:1004F0001080401C0828CED35460BDE8F08102462D
:10050000002093680B400BB1012000E000207047F1
:1005100041617047016170470AB1016100E04161CA
:100520007047F8B506460C4615460121304600F0E6
:100530002BFC8DF80340ADF8005003208DF802002D
:100540006946304600F0B2FCF8BD000070B50446C4
:10055000002600250CE000F085FF012807D10E4899
:10056000007860556D1C002601200C490870761C2F
:1005700042F210708642EED30020605507480078A2
:1005800048B110220121042000F007FA224601217F
:10059000042000F055FB70BD040000200600002080
:1005A00010B5044648480078012878D10020474912
:1005B000087010220121084600F0EFF944A2012141
:1005C000084600F03DFB207840286AD142A1204631
:1005D000FFF71AFE90B94FF400414148FFF798FF2A
:1005E00040A000F05DFF10220121022000F0D5F9AB
:1005F0003FA20121022000F023FB5CE03FA1204646
:10060000FFF702FE90B94FF400413548FFF782FF33
:100610003DA000F045FF10220121022000F0BDF9AD
:100620003DA20121022000F00BFB44E03DA1204649
:10063000FFF7EAFD78B93DA000F032FF102201215A
:10064000022000F0AAF93CA20121022000F0F8FAF1
:1006500000F0B2F82FE03BA12046FFF7D5FD80B9AE
:1006600001201A49087039A000F01AFF1022012158
:10067000022000F092F938A20121022000F0E0FAF5
:1006800019E038A000F00CFF10220121022000F038
:1006900084F938A20121022000F0D2FA0BE010E028
:1006A000FFE710220121022000F077F935A2012195
:1006B000022000F0C5FA13A0007820700020024943
:1006C00008700248007810BD0600002007000020D6
:1006D0004D494E443A000000404C45445F4F4E00A7
:1006E000001001404C45445F4F4E5F4F4B0D0A00D8
:1006F0004C45445F4F4E5F4F4B000000404C45441B
:100700005F4F4646000000004C45445F4F46465F41
:100710004F4B0D0A000000004C45445F4F46465FBA
:100720004F4B0000404D7573696300004D75736950
:10073000635F4F4B0D0A00004D757369635F4F4B4C
:1007400000000000404D4F44455F31004D4F44458F
:100750005F315F4F4B0D0A004D4F44455F315F4F96
:100760004B0000004552524F525F434F4D4D414E9A
:10077000440D0A004552524F525F434F4D4D414E7A
:10078000440000004E4F4E450000000010B500F040
:1007900099FE4FF4004210210846FFF7C2FE4FF4C5
:1007A00000410248FFF7B6FE10BD000000100140F6
:1007B00000BFFEE700BFFEE72BE0164816490978A8
:1007C000405CFF2825D0144801780078401C124A6C
:1007D00010701048405C1149087011460A78097879
:1007E000491C0D4B19700B49895CFA2201FB02F080
:1007F00001F0ABF804460D4609480849097830F87D
:10080000210082B22046294600F00CF80520FFF7AF
:100810007BFDD2E79C0000208E0100208D0100208E
:10082000080000202DE9FF5F04460D469246504621
:1008300001F0A2F802460B46CDE9020100201B4957
:1008400000F0FEFE80460022194B01F0E5F8064656
:100850000F464FF0000B10E000F02EF800224FF092
:1008600080433046394600F0EBFE804601F040F808
:100870000390FFF755FD0BF1010B32463B4600207C
:100880000C4900F0DDFE804622462B4601F0C4F8FC
:10089000CDE90201584601F058F8CDE90001DDE943
:1008A000022301F07DF8D7D3BDE8FF9F0000F03FA1
:1008B00080842E4100408F4010B508221021042072
:1008C000FFF72FFE08210748FFF719FE012804D182
:1008D00008210448FFF71CFE03E008210148FFF748
:1008E00019FE10BD000801407047000070B50021DE
:1008F00000230F22C47804B3154C246804F4E06488
:10090000C4F5E064210AC1F10403CA40447804FA42
:1009100003F184781440214309010E4C0678A15557
:10092000047804F01F050124AC4005786D11AD007A
:1009300005F1E025C5F8004109E0047804F01F0541
:100940000124AC40044D0678761145F8264070BD70
:100950000CED00E000E400E080E100E0024901432A
:10096000024A1160704700000000FA050CED00E03B
:1009700070B500240EE00021204600F016F9002595
:1009800004E0002000F080F9681CC5B2802DF8DB7F
:10099000601CC4B2082CEEDB70BD2DE9F0410646A8
:1009A0000F4690463D4625E06A1ED206110E721E85
:1009B0005206100E00F0F9F8002404E0002000F0C8
:1009C00063F9601CC4B2082CF8DB6A1ED206110E53
:1009D000721E012303EB4202D0B200F0E6F80024BD
:1009E00004E0002000F050F9601CC4B2082CF8DBD1
:1009F000681CC5B24545D7DDBDE8F08108B50121C9
:100A0000082000F0C1F914208DF8030003208DF8B0
:100A100002004FF48070ADF8000069460A48FFF705
:100A2000E3FC4FF40070ADF8000069460648FFF79C
:100A3000DBFC012211020448FFF76EFD0122510286
:100A40000148FFF769FD08BD000C014070B505467F
:100A5000002415E08020204100EA05024FF40071D7
:100A60000E48FFF759FD012211020C48FFF754FD13
:100A700000224FF480710948FFF74EFD601CC4B29C
:100A8000082CE7DB012211020448FFF745FD002294
:100A90004FF480710148FFF73FFD70BD000C01402D
:100AA00010B5012251020A48FFF736FD012211025A
:100AB0000748FFF731FD00224FF400710448FFF7AB
:100AC0002BFD00224FF480710148FFF725FD10BD7A
:100AD000000C014010B500224FF400710648FFF7EA
:100AE0001BFD012211020448FFF716FD01225102ED
:100AF0000148FFF711FD10BD000C014070B5002446
:100B000006E0002500E06D1CB5F57A7FFBD3641C80
:100B1000B4F57A7FF5D3FFF771FFAE2000F0A4F8AB
:100B2000D52000F0A1F8802000F09EF8A82000F069
:100B30009BF83F2000F098F8D32000F095F80020B3
:100B400000F092F8402000F08FF8A12000F08CF81F
:100B5000C82000F089F8DA2000F086F8122000F0B2
:100B600083F8812000F080F8CF2000F07DF8D920B4
:100B700000F07AF8F12000F077F8DB2000F074F84C
:100B8000302000F071F8A42000F06EF8A62000F0EC
:100B90006BF88D2000F068F8142000F065F8AF20A5
:100BA00000F062F8FFF7E4FE70BD70B505460C4634
:100BB00045F0B00000F058F8102141EA141000F0A0
:100BC00053F804F00F0000F04FF870BD2DE9F0412C
:100BD00005460E461746721ED206110E6A1E5206B2
:100BE000100EFFF7E2FF002409E0A7F12001134AED
:100BF00002EB0111085D00F047F8601CC4B2082C3C
:100C0000F3DB721ED206110E6A1E012303EB4202B1
:100C1000D0B2FFF7CAFF00240BE0A7F12001074A7A
:100C200002EB011204F10801505C00F02DF8601C89
:100C3000C4B2082CF1DBBDE8F0810000141C0008F0
:100C40002DE9F04107460E461546002407E02A5DCF
:100C50003019C1B23846FFF7B9FF601CC4B2285D35
:100C60000028F4D1BDE8F08110B50446FFF718FF65
:100C70007820FFF7EBFE0020FFF7E8FE2046FFF7A5
:100C8000E5FEFFF727FF10BD10B50446FFF708FF8C
:100C90007820FFF7DBFE4020FFF7D8FE2046FFF765
:100CA000D5FEFFF717FF10BD10B5044621460248D8
:100CB000006800F073FA10BD0000002000B589B094
:100CC0000121084600F050F80121042000F05CF8F2
:100CD00018208DF823000120ADF8200003208DF8A6
:100CE000220008A9042000F0E1F8012000F032F908
:100CF0001B4908600846006800F0F4F90020ADF8D0
:100D00001A00ADF816006320ADF8180040F2CF20AD
:100D1000ADF8140000208DF81C0005A910480068EB
:100D200000F03EFA01A800F02FFA6020ADF80400B0
:100D30000020ADF80C000120ADF806000020ADF851
:100D40000A0001A90648006800F0D2F90121044810
:100D5000006800F0BBF96420FFF7A6FF09B000BDF2
:100D6000000000207047000029B1064AD269024302
:100D7000044BDA6104E0034AD2698243014BDA6131
:100D8000704700000010024029B1064A92690243F0
:100D9000044B9A6104E0034A92698243014B9A61D1
:100DA000704700000010024030B5002100220024EE
:100DB00000232D4D6D6805F00C0121B1042905D0EB
:100DC000082923D105E0294D056022E0274D056063
:100DD0001FE0254D6D6805F47012234D6D6805F414
:100DE0008034022505EB92421CB9214D5543056024
:100DF0000BE01D4D6D6805F400351DB11C4D5543CC
:100E0000056002E0194D5543056002E0174D05608D
:100E100000BF00BF144D6D6805F0F0010909154DC4
:100E20006B5C0568DD4045600F4D6D6805F4E06161
:100E3000090A104D6B5C4568DD4085600A4D6D68A0
:100E400005F46051C90A0B4D6B5C4568DD40C56017
:100E5000054D6D6805F44041890B074D6B5CC56815
:100E6000B5FBF3F5056130BD0010024000127A00B9
:100E700000093D008F0100209F0100207047000005
:100E80000146042904D0082904D0102906D103E022
:100E9000034803E0034801E0034800BF00BF704778
:100EA00000080140000C01400010014070B50446EC
:100EB0000D46102C18D006DC042C0BD0082C0ED0BC
:100EC0000C2C3ED115E0142C1CD0182C23D01C2C3B
:100ED00037D129E029461C48FFF786FA31E0294638
:100EE0001A48FFF781FA2CE029461948FFF77CFAE7
:100EF00027E029461448FFF777FA29461348FFF7F9
:100F000073FA1EE029461048FFF76EFA294610488A
:100F1000FFF76AFA15E029460C48FFF765FA2946FB
:100F20000B48FFF761FA0CE029460748FFF75CFA27
:100F300029460648FFF758FA29460548FFF754FAAC
:100F400000BF00BF70BD000000080140000C014060
:100F5000001001400146012232B9022A07D0B2F541
:100F6000006F06D1044804E04FF0804001E00348E0
:100F700000BF00BF70470000002C0140000400408B
:100F800010B500F001F810BD0CB5002001900090E4
:100F90003348006840F480303149086000BF304871
:100FA000006800F4003000900198401C0190009807
:100FB00018B90198B0F5A06FF1D12948006800F484
:100FC000003010B10120009001E000200090009856
:100FD000012843D12348006840F0100021490860EF
:100FE0000846006820F0030008600846006840F0EA
:100FF000020008601A48406819494860084640687D
:1010000048600846406840F4806048600846406890
:1010100020F47C1048600846406840F4E8104860BE
:101020000846006840F08070086000BF0C48006807
:1010300000F000700028F9D00948406820F0030053
:10104000074948600846406840F00200486000BF19
:101050000348406800F00C000828F9D10CBD0000DE
:1010600000100240002002407047000010B51348F5
:10107000006840F0010011490860084640681049C6
:1010800008400E494860084600680E4908400B4970
:1010900008600846006820F4802008600846406820
:1010A00020F4FE0048604FF41F008860FFF768FFDF
:1010B0004FF000600449086010BD000000100240BD
:1010C0000000FFF8FFFFF6FE08ED00E021B1028806
:1010D00042F00102028004E002884FF6FE731A40DB
:1010E0000280704701894FF6F87211400181704704
:1010F00070B5002400220023058C4FF6FE763540A3
:101100000584028C8388048B4FF68F752C40B51EA6
:101110002C400D882C43751E2A400D892A434D888A
:101120002A43144DA8420BD0134DA84208D0134DAA
:10113000A84205D0124DA84202D0124DA84213D1A8
:101140004FF6F7752A404D892A434FF6FB752A4022
:101150008D882A434FF6FF652B404FF6FF552B40F5
:101160008D892B43CD892B4383800483CD8885864D
:10117000028470BD002C0140003401400040014059
:1011800000440140004801400021018041808180ED
:10119000C180018141818181C18170478186704711
:1011A000002202881D4B98420ED01D4B98420BD056
:1011B000B0F1804F08D01B4B984205D01A4B984293
:1011C00002D01A4B984204D14FF68F731A404B88C5
:1011D0001A43174B984207D0164B984204D04FF64B
:1011E000FF431A40CB881A4302808B8883850B8883
:1011F00003850A4B98420BD0094B984208D00E4BFE
:10120000984205D00D4B984202D00D4B984201D127
:101210000B7A03860123838270470000002C014073
:10122000003401400004004000080040000C004071
:101230000010004000140040004001400044014004
:101240000048014010B540F225510C4800F044F828
:10125000012812D1094800F0FBF809490870084636
:10126000027801210420FFF7B1FC01200549087034
:1012700040F22551014800F007F810BD0038014048
:10128000040000200500002010B50022002340F6D5
:101290006A14A14200D100BF0A1201249440A3B2F3
:1012A000DC43048010BD21B1828942F40052828166
:1012B00004E082894DF6FF731A408281704702462E
:1012C0000020B1F5007F00D100BF13880B400BB1A7
:1012D000012000E00020704770B502460024002382
:1012E0000025002040F66A16B14200D100BFC1F3CC
:1012F000421501F01F03012606FA03F3012D02D166
:101300009689334006E0022D02D1168A334001E06F
:10131000968A33400C12012606FA04F416883440EB
:1013200013B10CB1012000E0002070BDF0B5034600
:10133000002400260025002040F66A17B94200D19B
:1013400000BF1846C1F3421401F01F06012707FA37
:1013500006F5012C01D10C3004E0022C01D1103033
:1013600000E014301AB107682F43076002E00768F5
:10137000AF430760F0BD00002DE9F04786B0054699
:101380000E460024A24600BFA1460027B08900B146
:1013900000BF2F462C8A4CF6FF700440F0880443AF
:1013A0002C82AC894EF6F3100440B0883189084392
:1013B000718908430443AC81AC8A4FF6FF40044076
:1013C000B0890443AC8201A8FFF7EEFC1F488742B6
:1013D00002D1DDF810A001E0DDF80CA0A88900F42E
:1013E000004040B10AEBCA0000EB0A103168490026
:1013F000B0FBF1F807E00AEBCA0000EB0A10316815
:101400008900B0FBF1F86420B8FBF0F0040120097A
:10141000642101FB1089A88900F4004040B132200A
:1014200000EBC900B0FBF1F000F00700044308E056
:10143000322000EB09106421B0FBF1F000F00F0046
:1014400004432C8106B0BDE8F0870000003801405D
:1014500001468888C0F308007047C1F30802828003
:101460007047000005480078012804D10020034996
:101470000870012070470020FCE7000005000020F4
:1014800010B5044621460548FFF7E7FF00BF80215D
:101490000248FFF714FF0028F9D010BD00380140C2
:1014A00070B50446002504E0605DFFF7E9FF681CA5
:1014B000C5B2605D0028F7D1224601210220FFF766
:1014C000BFFB70BD00B587B001218803FFF75CFC4E
:1014D00001210420FFF758FC18208DF81B004FF461
:1014E0000070ADF8180003208DF81A0006A92748EF
:1014F000FEF77AFF48208DF81B004FF48060ADF8AE
:10150000180003208DF81A0006A92048FEF76CFF8A
:101510004FF4165002900020ADF814000C20ADF8E6
:1015200012000020ADF81000ADF80E00ADF80C0070
:1015300002A91748FFF720FF012240F22551144865
:10154000FFF7F4FE4FF4A060FFF708FA25208DF8AE
:10155000040001208DF807008DF805008DF80600C5
:1015600001A8FFF7C3F901210948FFF79CFEFFF727
:10157000C5FA08A201210846FFF762FB07A2012174
:101580000320FFF75DFB07B000BD0000000801402D
:101590000038014053454E443A000000524543563E
:1015A0003A00000000BFFEE710B5642406E0A0B2D8
:1015B000FFF77AFB1420FEF7A7FE641E002CF6DC72
:1015C000002406E0A0B2FFF76FFB1420FEF79CFE9C
:1015D000641C642CF6DD10BDFFF790FA0DA2072104
:1015E0000120FFF72DFBFFF769FBFFF7CFF80BA0FA
:1015F000FFF756FF0DE00A48FEF7A8FF0848FEF780
:10160000CFFF0849088008460088012801D1FFF76C
:10161000CBFFF0E74F4C4544000000004F4B21004A
:10162000AC010020A4010020491058BFC1F1404185
:101630005B1058BFC3F140438B42EFF3008070470B
:101640002DE9C04130B4DFF8A0C23CEA111418BF44
:101650003CEA131400F0EC8081EA03051CEA111443
:1016600044EAD57418BF1CEA131500F0C780A4EB38
:1016700005044FF0004545EAC12145EAC32341EA8C
:10168000505143EA525304F17F74994204F50034F7
:101690004FEAC0204FEAC22208BF904200F09C806F
:1016A0004FEA13650FF24016765D4FEA134506FBCD
:1016B00005F7C7F1807706FB07F74FEAD737A7FB97
:1016C00003687642C8F58038A7FB06CE38BFA8F17C
:1016D000010807FB08E64FF0000EA6FB028CE6FBB4
:1016E00003CEDCF1000CCEF1004E38BFAEF1010E9E
:1016F000A6FB0C584FF000074FF00005E6FB0E87E5
:10170000A1FB08C6A0FB07CE16EB0E0645F10005AF
:10171000E1FB076515F1E04E7EBFA4F580345FEA7A
:1017200046066D4116F1800745F100054FEA17277F
:101730004FEA066647EA0567A6F1DE46B6F1805F26
:101740004FEA15251FD9384624F0010C05EBC4716A
:10175000BCF1FE6F01EB0C1102D8F0BCBDE80081BA
:1017600024425CBF01F5801E9EEAC47F02D4F0BC17
:10177000BDE80081244238D4F0BCA1F1C041BDE8ED
:10178000004100F041BA4FEAD22242EA43524FEA06
:10179000D323A7FB02864FEAD02040EA415007FB43
:1017A00003661EEA0E0F4FEAD12105FB026658BF01
:1017B000A6EB0056B6EB00564FEA520E4EEAC37E39
:1017C00018EB0E0E56EB530EBDD518EB02085E411A
:1017D0007F1C55F10005B6E74FF480154FF0000768
:1017E0004FF000064FF00008ADE7F0BC4FF00000EE
:1017F00001F1C04101F00041BDE8008111EA0C1F78
:101800000CEA131500D00CE013EA0C1F00F0258041
:101810004FF00000F0BC81EA030101F00041BDE897
:101820000081F0BCBDE8004181EA030100F0ECB9A1
:10183000F0BCBDE8004170B500F098F9097EFC3EAF
:1018400000F007B881EA03014FF0000001F0004109
:10185000704781EA030100F0D7B9F0BCBDE8004150
:101860004FF0000021497047FFFDFBF9F7F5F4F256
:10187000F0EEEDEBE9E8E6E4E3E1E0DEDDDBDAD82B
:10188000D7D5D4D3D1D0CFCDCCCBCAC8C7C6C5C489
:10189000C2C1C0BFBEBDBCBBBAB9B8B7B6B5B4B3A0
:1018A000B2B1B0AFAEADACABAAA9A8A8A7A6A5A48B
:1018B000A3A3A2A1A09F9F9E9D9C9C9B9A9999984F
:1018C0009797969595949393929191908F8F8E8EF2
:1018D0008D8C8C8B8B8A898988888787868585847F
:1018E00084838382828181800000FF070000F87F6B
:1018F0004FEA1153A3F58063D3F11E03A8BFD3F1C0
:10190000200C08DB4FF0004242EAC12252EA50525A
:1019100032FA03F0704709420BD4102BC4BF0020E9
:10192000704703F5787CBCF1FF3F05D04FF0FF30E6
:1019300070474FF00000704770B500F017F900BF16
:101940004992248000207047F0E710F0004248BF21
:101950004042B0FA80F310FA03F10AD0C3F11D033C
:1019600003F580634FEA415002EB035202EBD121B1
:1019700070474FF000007047B0FA80F310FA03F19F
:101980000AD0C3F11D0303F580634FEA41504FEACB
:10199000035202EBD12170474FF000007047000066
:1019A00051EA030C17D41CF5801F58BFBCF5801FEB
:1019B00000F10680994218BF704708BF90427047F7
:1019C00007D711F5801F58BF13F5801F19D499420E
:1019D0007047894270471CF5801F08D5BCF5801FF1
:1019E000F7D58B4218BF704708BF824270474FF44B
:1019F000001C1CEB410F38BF1CEB430F01D28B4284
:101A0000704770B500F0B2F8922449004FF00051D1
:101A10004FF08053FFF708BEDFF848C170B51CEAED
:101A2000111E1EBF1CEA13159EEA0C0F95EA0C0F3F
:101A300000F06F8081EA030423EA4C134EEAD47E5F
:101A400021EA4C1141F4801143F48013AE44A1FB10
:101A5000024CA0FB0365AEF17F7E361955EB0C05F9
:101A6000A1FB034C4CF10003A0FB021C16EB0C067F
:101A7000654153F10003094218BF46F0010613F413
:101A8000007F0BD14FEA03314FEA0530340341EABE
:101A9000155140EA16506FF003020AE04FEAC321E5
:101AA0004FEAC520F40241EA555140EA56506FF022
:101AB000020202EB2E4201EB025585EACE710AD0FA
:101AC0005FEA440C18BF24F0004450F1000041F1DB
:101AD000000120EAD47040F2FE7C624500D270BD65
:101AE000A84214BF4FF080444FF04044002E08BF7E
:101AF0000024BEF1806FA8BFA1F1C041BDE87040D5
:101B000080F282804FF0000001F1C04101F00041FD
:101B100070479EEA0C0F0CEA131518BF95EA0C0FDC
:101B200006D04FF0000081EA030E0EF0004170BDB8
:101B300000F01CF88900013E00F007B800F009B879
:101B40004FEA430C5FEA5C5C08D081EA030100F0D5
:101B50005BB84FEA410C5FEA5C5CF6D14FF00000E5
:101B6000014970470000FF070000F87F0EF1020EE8
:101B70002EF0030E5EF8046B364205D4012A43EBC7
:101B8000030515F5001F12D8012841EB010C1CF5C7
:101B9000001F0CD80ED14FEAD17C15F5001F0CEBBD
:101BA0004C0C0CF1020C08BF4CEBD37C04E04FF062
:101BB000080C01E04FEAD37C0CEB4C0526FA05F645
:101BC00006F00706B6F1040C06D20EEB860CBDE853
:101BD00070404CF0010C6047DFE80CF0090B02028A
:101BE0004FF000414FF00000A1F5002170BD1946F3
:101BF0001046012851EB010418BFD4F5001484BF2E
:101C0000002001F0004170BD0808A0F500114FEA66
:101C100031017047000000000000000000000000DB
:101C200000000000000000F8000000000000003389
:101C30003000000000100C06100C06000000000030
:101C40000000000040C07840C0784000043F040419
:101C50003F040400007088FC08300000001820FFDA
:101C6000211E0000F008F000E018000000211C0315
:101C70001E211E0000F00888700000001E21232491
:101C80001927211010160E000000000000000000AF
:101C900000000000000000E018040200000000073F
:101CA0001820400000020418E00000000040201846
:101CB00007000000404080F0804040000202010F19
:101CC00001020200000000F0000000000101011FFD
:101CD00001010100000000000000000080B0700061
:101CE00000000000000000000000000000010101F1
:101CF0000101010100000000000000000030300080
:101D00000000000000000000806018040060180659
:101D10000100000000E010080810E000000F102093
:101D200020100F00001010F8000000000020203FDD
:101D30002020000000700808088870000030282467
:101D40002221300000300888884830000018202008
:101D500020110E000000C02010F80000000704242D
:101D6000243F240000F80888880808000019212072
:101D700020110E0000E0108888180000000F1120CC
:101D800020110E0000380808C83808000000003F85
:101D9000000000000070880808887000001C2221E4
:101DA00021221C0000E010080810E0000000312291
:101DB00022110F00000000C0C00000000000003031
:101DC0003000000000000080000000000000806083
:101DD0000000000000008040201008000001020404
:101DE00008102000404040404040400004040404EB
:101DF00004040400000810204080000000201008A7
:101E000004020100007048080808F00000000030DB
:101E100036010000C030C828E810E0000718272469
:101E200023140B000000C038E0000000203C230217
:101E30000227382008F8888888700000203F20207A
:101E400020110E00C03008080808380007182020AC
:101E50002010080008F808080810E000203F2020A3
:101E600020100F0008F88888E8081000203F202084
:101E70002320180008F88888E8081000203F200078
:101E800003000000C03008080838000007182020B0
:101E9000221E020008F808000008F808203F21016F
:101EA00001213F20000808F8080800000020203F1A
:101EB0002020000000000808F8080800C08080808A
:101EC0007F00000008F888C028180800203F200183
:101ED0002638200008F8080000000000203F2020DD
:101EE0002020300008F8F800F8F80800203F003FF4
:101EF000003F200008F830C00008F808203F20000C
:101F000007183F00E01008080810E0000F1020201C
:101F100020100F0008F808080808F000203F2101F1
:101F200001010000E01008080810E0000F18242448
:101F300038504F0008F8888888887000203F2000BB
:101F4000030C302000708808080838000038202171
:101F500021221C00180808F8080818000000203F7B
:101F60002000000008F808000008F808001F2020E2
:101F700020201F000878880000C8380800000738B3
:101F80000E010000F80800F80008F800033C070004
:101F9000073C0300081868808068180820302C036C
:101FA000032C30200838C800C83808000000203F43
:101FB0002000000010080808C83808002038262132
:101FC00020201800000000FE020202000000007F36
:101FD00040404000000C30C0000000000000000144
:101FE0000638C00000020202FE000000004040402F
:101FF0007F00000000000402020204000000000054
:1020000000000000000000000000000080808080D0
:1020100080808080000202040000000000000000B8
:102020000000000000008080808000000019242251
:1020300022223F2008F8008080000000003F11208D
:1020400020110E000000008080800000000E112092
:1020500020201100000000808088F800000E112070
:1020600020103F200000808080800000001F22227E
:1020700022221300008080F0888888180020203FEA
:10208000202000000000808080808000006B9494FD
:102090009493600008F8008080800000203F2100B9
:1020A00000203F2000809898000000000020203F82
:1020B00020200000000000809898000000C0808070
:1020C000807F000008F8000080808000203F24020C
:1020D0002D302000000808F8000000000020203FFC
:1020E000202000008080808080808000203F2000B1
:1020F0003F20003F8080008080800000203F210042
:1021000000203F200000808080800000001F2020F1
:1021100020201F00808000808000000080FFA12020
:1021200020110E000000008080808000000E112031
:1021300020A0FF80808080008080800020203F21C0
:102140002000010000008080808080000033242473
:1021500024241900008080E0808000000000001F1F
:10216000202000008080000000808000001F2020D0
:1021700020103F20808080000080808000010E3091
:102180000806010080800080008080800F300C03F2
:102190000C300F0000808000808080000020312EF5
:1021A0000E312000808080000080808080818E70D1
:1021B0001806010000808080808080000021302C83
:1021C0002221300000000000807C0202000000009C
:1021D000003F404000000000FF0000000000000041
:1021E000FF0000000002027C800000000040403F31
:1021F00000000000000601010202040400000000CB
:10220000000000002422000800000020AC010000B3
:102210002801000848230008AC010020C406000083
:1022200084010008C12306011A15041A26041A376E
:10223000041A4A041A5D041A72041A88041A9F04C4
:102240001AB8041ABE041AF004230B021A2A041A3C
:102250004B041A6E041A93041ABA041AE4042310E5
:10226000031A3F041A70041AA4041ADC0423160487
:102270001A55041A97041ADD042326051A75041A40
:10228000C8042320061A7D041AE0041B49076819B4
:1022900004112A04021F16021802190604181B044E
:1022A0001D04180C1102110216061402160419045A
:1022B000140C110412061102120C1311083B02191E
:1022C00002080B1C180613021304180418083C1A01
:1022D0000F0E193A180E02180419061B021B021DD4
:1022E00002190A0E1B021602280818041504160CFF
:1022F0001916191C780A1D0420041B0C1402144C16
:102300003B1D105A1966293A2E1906140A1E161971
:102310005818081D0C1D04220820322A1D1A39964F
:102320001A1B6619282914491EDA081C1B06186E88
:10233000116304FF2D010203040430090607080994
:082340000204060834094142C1
:04000005080000ED02
:00000001FF
